:100000000C9434000C9451000C9451000C94510049
:100010000C94C9000C94B5000C9451000C94510040
:100020000C9451000C9451000C9451000C949E00BF
:100030000C9451000C9451000C9453000C945100FA
:100040000C9451000C9451000C9451000C945100EC
:100050000C9451000C9451000C9451000C945100DC
:100060000C9451000C94510011241FBECFEFD8E026
:10007000DEBFCDBF11E0A0E0B1E0EEEEFEE002C0D9
:1000800005900D92A434B107D9F721E0A4E4B1E0C2
:1000900001C01D92AD35B207E1F70E9493020C94A6
:1000A00075070C9400001F920F920FB60F92112447
:1000B0002F935F936F937F938F939F93AF93BF9390
:1000C0008FE99FE00197F1F700C0000080914401A3
:1000D00090914501883B9140ECF4809144019091CE
:1000E000450180FD02C02C9A0BC080914401909183
:1000F000450162E070E00E943A04019791F42C9867
:10010000809144019091450101969093450180931F
:10011000440107C085B58E7F85BD109245011092C0
:100120004401BF91AF919F918F917F916F915F91AA
:100130002F910F900FBE0F901F9018951F920F9246
:100140000FB60F9211248F939F9380914601909147
:100150004701019690934701809346019F918F91AB
:100160000F900FBE0F901F9018951F920F920FB611
:100170000F9211248F939F9381E090E090935B0105
:1001800080935A019F918F910F900FBE0F901F90F7
:1001900018951F920F920FB60F9211248F939F9371
:1001A00086B180935C0180915C01847080935901D9
:1001B00080915C0188708093510180914C01811184
:1001C00026C0809151018823B9F080915901811195
:1001D00013C083E080934C0180914A0190914B01C0
:1001E000181619064CF480914A0190914B01019721
:1001F00090934B0180934A0180915101811196C0E7
:1002000080915901882309F491C081E053C0809105
:100210004C01813031F580915101811116C08091DE
:100220005901811112C010924C0180914A019091A4
:100230004B01181619064CF480914A0190914B011C
:10024000019790934B0180934A018091510188233B
:1002500009F46CC080915901882309F467C082E0D9
:1002600029C080914C01823041F58091510181116A
:1002700017C080915901882399F081E080934C0147
:1002800080914A0190914B01181619064CF4809107
:100290004A0190914B01019790934B0180934A0141
:1002A00080915101882309F441C080915901811145
:1002B0003DC083E080934C0129C080914C01833084
:1002C000A9F5809151018823B9F0809159018823C3
:1002D00099F082E080934C0180914A0190914B010A
:1002E000181619064CF480914A0190914B01019720
:1002F00090934B0180934A0180915101811116C066
:1003000080915901811112C010924C0180914A01D3
:1003100090914B01833691054CF480914A01909164
:100320004B01019690934B0180934A019F918F91CD
:100330000F900FBE0F901F90189505966AE070E021
:100340000E943A046115710539F085E38A95F1F749
:10035000000061507109F6CF08950F931F93CF935A
:10036000DF9300D000D0CDB7DEB78C019C0140E018
:1003700050E060E472E48FE090E00E944E045695F5
:1003800047953795279501151105F9F02C9ACA0163
:10039000B90129833A834B835C830E949D012C9889
:1003A00029813A814B815C81CA01B9010E949D017A
:1003B0008FE99FE00197F1F700C00000015011099B
:1003C0005C814B813A812981DECF0F900F900F9095
:1003D0000F90DF91CF911F910F9108959BB19F7066
:1003E0009BB99BB1807F892B8BB9299A299A29982F
:1003F0000895CF93C82F28980E94EE018C2F8295E4
:10040000807F0E94EE018FE39FE10197F1F700C02A
:100410000000CF910895811102C080E801C080ECF6
:10042000860F0C94F90184B1836084B98AB1806F1E
:100430008AB98FE59AEE0197F1F700C0000080E3DA
:100440000E94EE018FE19EE40197F1F700C00000E9
:1004500080E30E94EE018FED91E00197F1F700C07B
:10046000000080E30E94EE0180E20E94EE018FE333
:100470009FE10197F1F700C0000088E20E94F901B6
:100480008FE39FE10197F1F700C000008FE00E9429
:10049000F9018FE39FE10197F1F700C00000089593
:1004A000CF93C82F289A0E94EE018C2F8295807FCF
:1004B0000E94EE018FE39FE10197F1F700C0000079
:1004C000CF910895CF93DF93EC018991882319F0A0
:1004D0000E945002FACFDF91CF910895ECE7F0E04F
:1004E00090811082AAE7B0E09C911C9290818F705D
:1004F000892B808380818064808380818062808377
:100500008C9187608C938C9180688C9308958091F6
:100510007A00806480937A0080917A0086FDFCCF17
:10052000809179000895CF93DF93CDB7DEB7E5973B
:100530000FB6F894DEBF0FBECDBF87E690E0909374
:10054000C5008093C4008091C10080688093C10081
:100550000E94130280E00E946E020E94870281E0E6
:100560000E94F90180E091E09F938F9381E491E0F4
:100570009F938F931F9281E18F938E010E5E1F4F89
:100580001F930F930E949604C8010E9462022FEFEE
:1005900037EA81E6215030408040E1F700C000009A
:1005A00081E00E94F90160E081E00E940B028091ED
:1005B0004A0190914B019F938F9384E191E09F9327
:1005C0008F9389E191E09F938F931F9281E18F93A5
:1005D000015111091F930F930E949604C8010E94B4
:1005E000620286B180935C0180915C01807280938D
:1005F000590180915C018270809351018091510179
:100600000FB6F894DEBF0FBECDBF811104C080913C
:100610005901882369F080915101811104C08091B2
:100620005901811105C080915101811180915901B9
:100630008091810088608093810080916F0082604A
:1006400080936F0080E89EE39093890080938800F8
:10065000789484B5826084BD80916E0082608093BE
:100660006E0085E087BD51985298599A5A9A399AE6
:1006700088B18C6088B9249A8091680084608093E6
:10068000680080916D00826080936D0080916D00A4
:10069000846080936D008091680082608093680020
:1006A00080916C00846080936C0080916C00886005
:1006B00080936C0020E030E08BEF282E80E8382E0D
:1006C0009AE0492E512C4CE2642E41E0742E51E305
:1006D000A52E51E0B52E67E3862E61E0962E7E01B1
:1006E000B3E2EB0EF11C4091480150914901809119
:1006F0004A0190914B0148175907C9F160E081E028
:100700002DAB3CAB0E940B026EE171E0C8010E9470
:100710008F04C8010E94620260E081E00E940B0227
:1007200080914A0190914B019F938F93A4E1B1E096
:10073000BF93AF93A9E1B1E0BF93AF931F9291E153
:100740009F931F930F930E949604C8010E94620218
:1007500080914A0190914B01909349018093480107
:100760000FB6F894DEBF0FBECDBF3CA92DA9809176
:100770005A0190915B01019709F0B5CF49990DC0DD
:100780002130310509F45DC0419A8091810081607A
:100790008093810021E030E054C04A9952C0211575
:1007A000310509F44EC04198809181008E7F80937D
:1007B00081006091460170914701C1010E942604A9
:1007C000CB01B2010E943A046B01282F62E080E065
:1007D0002DAB9CAB0E940B0240914601509147010A
:1007E0007F926F929CA99F932DA92F93AFE2B1E0C6
:1007F000BF93AF93DF92CF92BF92AF925F934F932D
:100800009F928F921F9231E13F93FF92EF920E944D
:100810009604C7010E94620280914A0190914B01A7
:100820000FB6F894DEBF0FBECDBFC816D9061CF0B8
:1008300085B5816085BD109247011092460120E088
:1008400030E010925B0110925A014DCFAA1BBB1BE6
:1008500051E107C0AA1FBB1FA617B70710F0A61BC0
:10086000B70B881F991F5A95A9F780959095BC01E1
:10087000CD01089597FB072E16F4009407D077FD5D
:1008800009D00E94260407FC05D03EF4909581957E
:100890009F4F0895709561957F4F0895052E97FBA2
:1008A0001EF400940E94650457FD07D00E946D0459
:1008B00007FC03D04EF40C94650450954095309598
:1008C00021953F4F4F4F5F4F0895909580957095BC
:1008D00061957F4F8F4F9F4F0895A1E21A2EAA1B5B
:1008E000BB1BFD010DC0AA1FBB1FEE1FFF1FA217E0
:1008F000B307E407F50720F0A21BB30BE40BF50BDD
:10090000661F771F881F991F1A9469F76095709565
:10091000809590959B01AC01BD01CF010895FB012D
:10092000DC0101900D920020E1F70895AEE0B0E007
:10093000ECE9F4E00C944C070D891E898F89988DA1
:1009400026E02C831A83098397FF02C080E090E899
:1009500001979E838D83AE01455E5F4F698D7A8DD1
:10096000CE0101960E94C6044D815E8157FD0AC0EA
:100970002F813885421753070CF49A01F801E20FD2
:10098000F31F10822E96E4E00C946807ACE0B0E010
:10099000ECECF4E00C943E077C016B018A01FC0155
:1009A00017821682838181FFBDC1CE0101964C0161
:1009B000F7019381F60193FD859193FF81916F017A
:1009C000882309F4ABC1853239F493FD859193FFF7
:1009D00081916F01853229F4B70190E00E94AE0643
:1009E000E7CF512C312C20E02032A0F48B3269F07B
:1009F00030F4803259F0833269F420612CC08D329A
:100A000039F0803339F4216026C02260246023C08D
:100A1000286021C027FD27C030ED380F3A3078F428
:100A200026FF06C0FAE05F9E300D1124532E13C03E
:100A30008AE0389E300D1124332E20620CC08E3295
:100A400021F426FD6BC1206406C08C3611F42068A9
:100A500002C0883641F4F60193FD859193FF8191A0
:100A60006F018111C1CF982F9F7D9554933028F449
:100A70000C5F1F4FFFE3F9830DC0833631F08337DE
:100A800071F0833509F05BC022C0F8018081898351
:100A90000E5F1F4F44244394512C540115C038015C
:100AA000F2E06F0E711CF801A080B18026FF03C038
:100AB000652D70E002C06FEF7FEFC5012C870E94AB
:100AC000A3062C0183012C852F77222E17C0380115
:100AD000F2E06F0E711CF801A080B18026FF03C008
:100AE000652D70E002C06FEF7FEFC5012C870E947B
:100AF00098062C012C852068222E830123FC1BC024
:100B0000832D90E048165906B0F4B70180E290E0DA
:100B10000E94AE063A94F4CFF50127FC859127FE9A
:100B200081915F01B70190E00E94AE0631103A94C6
:100B3000F1E04F1A51084114510471F7E5C08436B1
:100B400011F0893639F5F80127FF07C060817181FE
:100B5000828193810C5F1F4F08C06081718188275B
:100B600077FD8095982F0E5F1F4F2F76B22E97FF3F
:100B700009C090958095709561957F4F8F4F9F4FDD
:100B80002068B22E2AE030E0A4010E94E006A82EE0
:100B9000A81844C0853729F42F7EB22E2AE030E011
:100BA00025C0F22FF97FBF2E8F36C1F018F488359B
:100BB00079F0B4C0803719F0883721F0AFC02F2FFB
:100BC0002061B22EB4FE0DC08B2D8460B82E09C0FA
:100BD00024FF0AC09F2F9660B92E06C028E030E09F
:100BE00005C020E130E002C020E132E0F801B7FEAC
:100BF00007C060817181828193810C5F1F4F06C0A5
:100C00006081718180E090E00E5F1F4FA4010E941F
:100C1000E006A82EA818FB2DFF77BF2EB6FE0BC04E
:100C20002B2D2E7FA51450F4B4FE0AC0B2FC08C0D0
:100C30002B2D2E7E05C07A2C2B2D03C07A2C01C0C3
:100C4000752C24FF0DC0FE01EA0DF11D808180335B
:100C500011F4297E09C022FF06C07394739404C066
:100C6000822F867809F0739423FD13C020FF06C0FD
:100C70005A2C731418F4530C5718732C731468F40B
:100C8000B70180E290E02C870E94AE0673942C8519
:100C9000F5CF731410F4371801C0312C24FF12C0A3
:100CA000B70180E390E02C870E94AE062C8522FFDE
:100CB00017C021FF03C088E590E002C088E790E0FC
:100CC000B7010CC0822F867859F021FD02C080E266
:100CD00001C08BE227FD8DE2B70190E00E94AE06D5
:100CE000A51438F4B70180E390E00E94AE065A9450
:100CF000F7CFAA94F401EA0DF11D8081B70190E0CD
:100D00000E94AE06A110F5CF332009F451CEB701F1
:100D100080E290E00E94AE063A94F6CFF701868119
:100D2000978102C08FEF9FEF2C96E2E10C945A0757
:100D3000FC010590615070400110D8F780959095A6
:100D40008E0F9F1F0895FC016150704001900110AB
:100D5000D8F7809590958E0F9F1F08950F931F933E
:100D6000CF93DF93182F092FEB018B8181FD03C0F7
:100D70008FEF9FEF20C082FF10C04E815F812C81DA
:100D80003D81421753077CF4E881F9819F012F5F71
:100D90003F4F39832883108306C0E885F985812F6A
:100DA0000995892B29F72E813F812F5F3F4F3F8384
:100DB0002E83812F902FDF91CF911F910F91089556
:100DC000FA01AA27283051F1203181F1E8946F937C
:100DD0006E7F6E5F7F4F8F4F9F4FAF4FB1E03ED022
:100DE000B4E03CD0670F781F891F9A1FA11D680FC0
:100DF000791F8A1F911DA11D6A0F711D811D911DF3
:100E0000A11D20D009F468943F912AE0269F112467
:100E10003019305D3193DEF6CF010895462F4770CB
:100E2000405D4193B3E00FD0C9F7F6CF462F4F7026
:100E3000405D4A3318F0495D31FD4052419302D084
:100E4000A9F7EACFB4E0A69597958795779567952A
:100E5000BA95C9F700976105710508959B01AC012A
:100E60000A2E06945795479537952795BA95C9F751
:100E7000620F731F841F951FA01D08952F923F922C
:100E80004F925F926F927F928F929F92AF92BF929A
:100E9000CF92DF92EF92FF920F931F93CF93DF9346
:100EA000CDB7DEB7CA1BDB0B0FB6F894DEBF0FBEA3
:100EB000CDBF09942A88398848885F846E847D84F0
:100EC0008C849B84AA84B984C884DF80EE80FD80F2
:100ED0000C811B81AA81B981CE0FD11D0FB6F89468
:0E0EE000DEBF0FBECDBFED010895F894FFCF29
:100EEE005374657068616E6965204C616D706F74C6
:100EFE00616E67004D61783D0025732564004D617C
:100F0E00783D202020202020202020202020002E70
:100F1E00006D73203D2000256425732564257325FF
:040F2E0064257300C3
:00000001FF
