:100000000C9434000C9451000C9451000C94510049
:100010000C9451000C9451000C9451000C9451001C
:100020000C9451000C9451000C9451000C9451000C
:100030000C9451000C9451000C9451000C945100FC
:100040000C9451000C9451000C947A000C945100C3
:100050000C9451000C9451000C9451000C945100DC
:100060000C9451000C94510011241FBECFEFD8E026
:10007000DEBFCDBF11E0A0E0B1E0E2E7FAE002C0F0
:1000800005900D92A83DB107D9F721E0A8EDB1E0A8
:1000900001C01D92AD3EB207E1F70E945C010C94D5
:1000A00037050C94000086E08093C200E1ECF0E09C
:1000B000808188618083539A5B9808959091C000F5
:1000C00095FFFCCF8093C60008950F931F93CF93A5
:1000D000DF938C01C0E0D0E0F80181918F010E9494
:1000E0005E002196C031D105B9F7DF91CF911F9104
:1000F0000F9108951F920F920FB60F9211242F9314
:100100008F939F93EF93FF932091C6008091D80126
:100110009091D901FC01E452FE4F20830196909307
:10012000D9018093D801409741F41092EC0181E10C
:1001300090E09093D9018093D8018091D80190915B
:10014000D901419751F41092D9011092D80181E060
:1001500090E09093DB018093DA01FF91EF919F9102
:100160008F912F910F900FBE0F901F9018959BB1FC
:100170009F709BB99BB1807F892B8BB9299A299A53
:1001800029980895CF93C82F28980E94B7008C2FE4
:100190008295807F0E94B7008FE39FE10197F1F77E
:1001A00000C00000CF910895811102C080E801C015
:1001B00080EC860F0C94C20084B1836084B98AB14C
:1001C000806F8AB98FE59AEE0197F1F700C00000C1
:1001D00080E30E94B7008FE19EE40197F1F700C031
:1001E000000080E30E94B7008FED91E00197F1F7E6
:1001F00000C0000080E30E94B70080E20E94B700C8
:100200008FE39FE10197F1F700C0000088E20E94B0
:10021000C2008FE39FE10197F1F700C000008FE07B
:100220000E94C2008FE39FE10197F1F700C0000038
:100230000895CF93C82F289A0E94B7008C2F8295DB
:10024000807F0E94B7008FE39FE10197F1F700C024
:100250000000CF910895CF93DF93EC01899188231B
:1002600019F00E941901FACFDF91CF910895ECE7C0
:10027000F0E090811082AAE7B0E09C911C929081FE
:100280008F70892B808380818064808380818062ED
:1002900080838C9187608C938C9180688C93089577
:1002A00080917A00806480937A0080917A0086FD44
:1002B000FCCF809179000895CF93DF93CDB7DEB75F
:1002C000A2970FB6F894DEBF0FBECDBF87E690E0D1
:1002D0009093C5008093C4000E94DC0080E00E94DF
:1002E000370187E690E00E9453008091C10080684A
:1002F0008093C100789481E00E94C20084E191E083
:100300009F938F938BE291E09F938F931F9281E154
:100310008F938E010F5F1F4F1F930F930E94580200
:10032000C8010E942B012FEF83ED90E32150804004
:100330009040E1F700C0000081E00E94C20080917F
:1003400001018F93809100018F938BE291E09F9345
:100350008F931F9281E18F930F5E1F4F1F930F9317
:100360000E94580260E080E00E94D400C8010E9410
:100370002B010FB6F894DEBF0FBECDBFE12CF12CE0
:100380003CED832E31E0932E4BE2A42E41E0B42EBF
:1003900051E1752E8091DA019091DB010197D1F442
:1003A00060E081E00E94D4009F928F92BF92AF9252
:1003B0001F927F921F930F930E945802C8010E94C0
:1003C0002B011092DB011092DA010FB6F894DEBF18
:1003D0000FBECDBF0E94500191ED980F993098F556
:1003E0000E9450018F3250F5E114F10409F45AC013
:1003F000670191E0C91AD108EC14FD04E9F0F60197
:10040000EE0FFF1FE050FF4F81818F9380818F930C
:10041000BF92AF921F927F921F930F930E94580238
:1004200060E080E00E94D400C8010E942B010FB65A
:10043000F894DEBF0FBECDBF7601ACCF0E94500155
:10044000883370F2D1CF9FE9980F9930A8F40E94B9
:100450005001813638F429E0E216F10441F4C12C50
:10046000D12CCDCF0E9450018A3688F3F4CF67019A
:100470008FEFC81AD80AC0CF895C8930B8F40E94BF
:100480005001893C50F4F701EE0FFF1FE050FF4F81
:10049000808191810E94650009C00E945001823DC7
:1004A00070F3F1CF89E0C82ED12CA9CF6701C4CF5A
:1004B000AEE0B0E0EEE5F2E00C940E050D891E8989
:1004C0008F89988D26E02C831A83098397FF02C0B9
:1004D00080E090E801979E838D83AE01455E5F4F7B
:1004E000698D7A8DCE0101960E9488024D815E81D0
:1004F00057FD0AC02F813885421753070CF49A0123
:10050000F801E20FF31F10822E96E4E00C942A0506
:10051000ACE0B0E0EEE8F2E00C9400057C016B0189
:100520008A01FC0117821682838181FFBDC1CE0141
:1005300001964C01F7019381F60193FD859193FF9C
:1005400081916F01882309F4ABC1853239F493FDA1
:10055000859193FF81916F01853229F4B70190E075
:100560000E947004E7CF512C312C20E02032A0F4FF
:100570008B3269F030F4803259F0833269F42061B3
:100580002CC08D3239F0803339F4216026C02260CE
:10059000246023C0286021C027FD27C030ED380F1C
:1005A0003A3078F426FF06C0FAE05F9E300D112441
:1005B000532E13C08AE0389E300D1124332E206252
:1005C0000CC08E3221F426FD6BC1206406C08C362F
:1005D00011F4206802C0883641F4F60193FD85913C
:1005E00093FF81916F018111C1CF982F9F7D955409
:1005F000933028F40C5F1F4FFFE3F9830DC083365F
:1006000031F0833771F0833509F05BC022C0F80107
:10061000808189830E5F1F4F44244394512C5401E1
:1006200015C03801F2E06F0E711CF801A080B18096
:1006300026FF03C0652D70E002C06FEF7FEFC5019C
:100640002C870E9465042C0183012C852F77222E94
:1006500017C03801F2E06F0E711CF801A080B18064
:1006600026FF03C0652D70E002C06FEF7FEFC5016C
:100670002C870E945A042C012C852068222E83018D
:1006800023FC1BC0832D90E048165906B0F4B70137
:1006900080E290E00E9470043A94F4CFF50127FCC8
:1006A000859127FE81915F01B70190E00E9470045F
:1006B00031103A94F1E04F1A51084114510471F786
:1006C000E5C0843611F0893639F5F80127FF07C0F7
:1006D00060817181828193810C5F1F4F08C06081AE
:1006E0007181882777FD8095982F0E5F1F4F2F7699
:1006F000B22E97FF09C090958095709561957F4FB8
:100700008F4F9F4F2068B22E2AE030E0A4010E9454
:10071000A204A82EA81844C0853729F42F7EB22E33
:100720002AE030E025C0F22FF97FBF2E8F36C1F0CE
:1007300018F4883579F0B4C0803719F0883721F083
:10074000AFC02F2F2061B22EB4FE0DC08B2D846060
:10075000B82E09C024FF0AC09F2F9660B92E06C08C
:1007600028E030E005C020E130E002C020E132E0C6
:10077000F801B7FE07C060817181828193810C5FAF
:100780001F4F06C06081718180E090E00E5F1F4FB7
:10079000A4010E94A204A82EA818FB2DFF77BF2E4B
:1007A000B6FE0BC02B2D2E7FA51450F4B4FE0AC04C
:1007B000B2FC08C02B2D2E7E05C07A2C2B2D03C039
:1007C0007A2C01C0752C24FF0DC0FE01EA0DF11D2D
:1007D0008081803311F4297E09C022FF06C0739402
:1007E000739404C0822F867809F0739423FD13C09C
:1007F00020FF06C05A2C731418F4530C5718732C8E
:10080000731468F4B70180E290E02C870E947004B2
:1008100073942C85F5CF731410F4371801C0312C64
:1008200024FF12C0B70180E390E02C870E9470047F
:100830002C8522FF17C021FF03C088E590E002C08D
:1008400088E790E0B7010CC0822F867859F021FD2F
:1008500002C080E201C08BE227FD8DE2B70190E08B
:100860000E947004A51438F4B70180E390E00E9460
:1008700070045A94F7CFAA94F401EA0DF11D808117
:10088000B70190E00E947004A110F5CF332009F465
:1008900051CEB70180E290E00E9470043A94F6CF06
:1008A000F7018681978102C08FEF9FEF2C96E2E1DE
:1008B0000C941C05FC010590615070400110D8F7A4
:1008C000809590958E0F9F1F0895FC016150704098
:1008D00001900110D8F7809590958E0F9F1F089575
:1008E0000F931F93CF93DF93182F092FEB018B8169
:1008F00081FD03C08FEF9FEF20C082FF10C04E81AB
:100900005F812C813D81421753077CF4E881F98196
:100910009F012F5F3F4F39832883108306C0E885EE
:10092000F985812F0995892B29F72E813F812F5F2A
:100930003F4F3F832E83812F902FDF91CF911F91C7
:100940000F910895FA01AA27283051F1203181F141
:10095000E8946F936E7F6E5F7F4F8F4F9F4FAF4FC7
:10096000B1E03ED0B4E03CD0670F781F891F9A1FDA
:10097000A11D680F791F8A1F911DA11D6A0F711D8E
:10098000811D911DA11D20D009F468943F912AE09A
:10099000269F11243019305D3193DEF6CF01089582
:1009A000462F4770405D4193B3E00FD0C9F7F6CFB3
:1009B000462F4F70405D4A3318F0495D31FD40527B
:1009C000419302D0A9F7EACFB4E0A6959795879511
:1009D00077956795BA95C9F70097610571050895F0
:1009E0009B01AC010A2E069457954795379527959C
:1009F000BA95C9F7620F731F841F951FA01D089534
:100A00002F923F924F925F926F927F928F929F921E
:100A1000AF92BF92CF92DF92EF92FF920F931F930C
:100A2000CF93DF93CDB7DEB7CA1BDB0B0FB6F894BD
:100A3000DEBF0FBECDBF09942A88398848885F84FD
:100A40006E847D848C849B84AA84B984C884DF806E
:100A5000EE80FD800C811B81AA81B981CE0FD11D52
:100A60000FB6F894DEBF0FBECDBFED010895F89428
:020A7000FFCFB6
:100A72002E013F0150016101720183019401A50120
:100A8200B601C7015374657068616E6965203A29C1
:100A9200204C616D706F74616E670025730048654C
:100AA2006C6C6F2020202020202020202020004855
:100AB2006F772061726520796F753F2020202000BA
:100AC200686F20686F20686F20202020202020205F
:100AD2000048616D62616761212020202020202072
:100AE20020004861737461206C7565676F20202057
:100AF2002020004861726B2020202020202020200E
:100B020020202000686561727420746F206865611E
:100B12007274202000686F6D652064617767202001
:100B2200202020202000486176656E7420796F7540
:100B320020686561726400486F727269626C652137
:080B42002020202020202000CB
:00000001FF
