:100000000C9434000C943E000C943E000C943E0082
:100010000C943E000C943E000C943E000C943E0068
:100020000C943E000C943E000C943E000C943E0058
:100030000C943E000C943E000C943E000C943E0048
:100040000C943E000C943E000C943E000C943E0038
:100050000C943E000C943E000C943E000C943E0028
:100060000C943E000C943E0011241FBECFEFD8E04C
:10007000DEBFCDBF0E94C0000C9405010C940000AF
:100080009BB19F709BB99BB1807F892B8BB9299ABB
:10009000299A29980895CF93C82F28980E94400044
:1000A0008C2F8295807F0E9440008FE39FE1019713
:1000B000F1F700C00000CF910895811102C080E8DF
:1000C00001C080EC860F0C944B0084B1836084B92E
:1000D0008AB1806F8AB98FE59AEE0197F1F700C077
:1000E000000080E30E9440008FE19EE40197F1F759
:1000F00000C0000080E30E9440008FED91E0019776
:10010000F1F700C0000080E30E94400080E20E94FE
:1001100040008FE39FE10197F1F700C0000088E203
:100120000E944B008FE39FE10197F1F700C00000B0
:100130008FE00E944B008FE39FE10197F1F700C031
:1001400000000895CF93C82F289A0E9440008C2F5A
:100150008295807F0E9440008FE39FE10197F1F735
:1001600000C00000CF910895CF93DF93EC018991F7
:10017000882319F00E94A200FACFDF91CF91089551
:100180000E94650087B18B7E87B988B1846188B988
:10019000C0E040E089E190E026B130E02F6E3F6F93
:1001A0002F3E3F4F09F440E026B130E02B6F3F6F08
:1001B0002B3F3F4F09F441E02FEF39EF50E0215042
:1001C00030405040E1F700C000000197009721F750
:1001D00041110CC081E00E944B0080E38C0F0E9413
:1001E000A200C93009F4CFEFCF5FD3CF413091F6F1
:1001F00081E00E944B0080E38C0F0E94A200C1119D
:0E02000001C0CAE0C15041E0C5CFF894FFCF65
:00000001FF
