:100000000C9434000C9449000C9449000C94490061
:100010000C9449000C9449000C9449000C9449003C
:100020000C9449000C9449000C9449000C9449002C
:100030000C9449000C9449000C9449000C9449001C
:100040000C9449000C9449000C9449000C9449000C
:100050000C9449000C9449000C9449000C944900FC
:100060000C9449000C94490011241FBECFEFD8E036
:10007000DEBFCDBF11E0A0E0B1E0E2EBF9E002C0ED
:1000800005900D92A635B107D9F70E9407010C948F
:10009000D7040C94000086B190E08F6E9F6F41965C
:1000A000A9F48FE19EE40197F1F700C0000086B14A
:1000B00090E08F6E9F6F4196D1F38FE19EE40197A0
:1000C000F1F700C0000081E090E0089580E090E04A
:1000D000089586B190E08B6F9F6F0596A9F48FE12C
:1000E0009EE40197F1F700C0000086B190E08B6FAD
:1000F0009F6F0596D1F38FE19EE40197F1F700C061
:10010000000081E090E0089580E090E008959BB1C8
:100110009F709BB99BB1807F892B8BB9299A299AB3
:1001200029980895CF93C82F28980E9487008C2F74
:100130008295807F0E9487008FE39FE10197F1F70E
:1001400000C00000CF910895811102C080E801C075
:1001500080EC860F0C94920084B1836084B98AB1DC
:10016000806F8AB98FE59AEE0197F1F700C0000021
:1001700080E30E9487008FE19EE40197F1F700C0C1
:10018000000080E30E9487008FED91E00197F1F776
:1001900000C0000080E30E94870080E20E94870088
:1001A0008FE39FE10197F1F700C0000088E20E9411
:1001B00092008FE39FE10197F1F700C000008FE00C
:1001C0000E9492008FE39FE10197F1F700C00000C9
:1001D0000895CF93C82F289A0E9487008C2F82956C
:1001E000807F0E9487008FE39FE10197F1F700C0B5
:1001F0000000CF910895CF93DF93EC01899188237C
:1002000019F00E94E900FACFDF91CF910895CF93C2
:10021000DF93CDB7DEB7C554D1090FB6F894DEBF72
:100220000FBECDBF0E94AC0081E00E94920089E128
:1002300091E09F938F9382E591E09F938F931F921C
:1002400021E1F22EFF928E010C5C1F4F1F930F9342
:100250000E94F801C8010E94FB0061E081E00E9459
:10026000A40087E08F938FEC8F931F9284E08F938D
:100270008DE291E09F938F9384E391E09F938F931E
:100280001F92FF92015111091F930F930E94F801D1
:10029000C8010E94FB002FEF87EA91E621508040C1
:1002A0009040E1F700C0000081E00E94920087B119
:1002B0008B7E87B988B1846188B90FB6F894DEBFA8
:1002C0000FBECDBF00E011E0712C3EE3A32E31E064
:1002D000B32E41E1642E7E0192E1E90EF11C5AE455
:1002E000852E51E0952ECE0101966C01872D992720
:1002F00087FD90959F937F92BF92AF921F926F92CE
:10030000FF92EF920E94F801C7010E94FB0060E09B
:1003100081E00E94A4001F930F939F928F921F92DF
:100320006F92DF92CF920E94F801C6010E94FB00FB
:1003300060E080E00E94A4000FB6F894DEBF0FBE1C
:10034000CDBF711007C00E944B0077247394892B96
:1003500069F64CC091E0791214C00E946900892BA3
:1003600011F421E001C022E026962FAF26970E94CB
:100370004B0026962FAD2697892B09F0B7CF722E0A
:10038000B5CF22E072120EC00E946900892B11F0D5
:1003900093E0792E0E944B00892B09F4A7CF772494
:1003A0007394A4CF83E078120DC00E946900892B5A
:1003B00009F0712C0E944B00892B09F497CF84E03F
:1003C000782E94CF94E0791291CF0E946900892B06
:1003D00019F407E011E003C000E111E0712C0E9464
:1003E0004B00892B09F482CF00E111E0712C7ECF04
:1003F000AEE0B0E0EEEFF1E00C94AE040D891E89A2
:100400008F89988D26E02C831A83098397FF02C079
:1004100080E090E801979E838D83AE01455E5F4F3B
:10042000698D7A8DCE0101960E9428024D815E81F0
:1004300057FD0AC02F813885421753070CF49A01E3
:10044000F801E20FF31F10822E96E4E00C94CA0428
:10045000ACE0B0E0EEE2F2E00C94A0047C016B01B1
:100460008A01FC0117821682838181FFBDC1CE0102
:1004700001964C01F7019381F60193FD859193FF5D
:1004800081916F01882309F4ABC1853239F493FD62
:10049000859193FF81916F01853229F4B70190E036
:1004A0000E941004E7CF512C312C20E02032A0F420
:1004B0008B3269F030F4803259F0833269F4206174
:1004C0002CC08D3239F0803339F4216026C022608F
:1004D000246023C0286021C027FD27C030ED380FDD
:1004E0003A3078F426FF06C0FAE05F9E300D112402
:1004F000532E13C08AE0389E300D1124332E206213
:100500000CC08E3221F426FD6BC1206406C08C36EF
:1005100011F4206802C0883641F4F60193FD8591FC
:1005200093FF81916F018111C1CF982F9F7D9554C9
:10053000933028F40C5F1F4FFFE3F9830DC083361F
:1005400031F0833771F0833509F05BC022C0F801C8
:10055000808189830E5F1F4F44244394512C5401A2
:1005600015C03801F2E06F0E711CF801A080B18057
:1005700026FF03C0652D70E002C06FEF7FEFC5015D
:100580002C870E9405042C0183012C852F77222EB5
:1005900017C03801F2E06F0E711CF801A080B18025
:1005A00026FF03C0652D70E002C06FEF7FEFC5012D
:1005B0002C870E94FA032C012C852068222E8301AF
:1005C00023FC1BC0832D90E048165906B0F4B701F8
:1005D00080E290E00E9410043A94F4CFF50127FCE9
:1005E000859127FE81915F01B70190E00E94100480
:1005F00031103A94F1E04F1A51084114510471F747
:10060000E5C0843611F0893639F5F80127FF07C0B7
:1006100060817181828193810C5F1F4F08C060816E
:100620007181882777FD8095982F0E5F1F4F2F7659
:10063000B22E97FF09C090958095709561957F4F78
:100640008F4F9F4F2068B22E2AE030E0A4010E9415
:100650004204A82EA81844C0853729F42F7EB22E54
:100660002AE030E025C0F22FF97FBF2E8F36C1F08F
:1006700018F4883579F0B4C0803719F0883721F044
:10068000AFC02F2F2061B22EB4FE0DC08B2D846021
:10069000B82E09C024FF0AC09F2F9660B92E06C04D
:1006A00028E030E005C020E130E002C020E132E087
:1006B000F801B7FE07C060817181828193810C5F70
:1006C0001F4F06C06081718180E090E00E5F1F4F78
:1006D000A4010E944204A82EA818FB2DFF77BF2E6C
:1006E000B6FE0BC02B2D2E7FA51450F4B4FE0AC00D
:1006F000B2FC08C02B2D2E7E05C07A2C2B2D03C0FA
:100700007A2C01C0752C24FF0DC0FE01EA0DF11DED
:100710008081803311F4297E09C022FF06C07394C2
:10072000739404C0822F867809F0739423FD13C05C
:1007300020FF06C05A2C731418F4530C5718732C4E
:10074000731468F4B70180E290E02C870E941004D3
:1007500073942C85F5CF731410F4371801C0312C25
:1007600024FF12C0B70180E390E02C870E941004A0
:100770002C8522FF17C021FF03C088E590E002C04E
:1007800088E790E0B7010CC0822F867859F021FDF0
:1007900002C080E201C08BE227FD8DE2B70190E04C
:1007A0000E941004A51438F4B70180E390E00E9481
:1007B00010045A94F7CFAA94F401EA0DF11D808138
:1007C000B70190E00E941004A110F5CF332009F486
:1007D00051CEB70180E290E00E9410043A94F6CF27
:1007E000F7018681978102C08FEF9FEF2C96E2E19F
:1007F0000C94BC04FC010590615070400110D8F7C6
:10080000809590958E0F9F1F0895FC016150704058
:1008100001900110D8F7809590958E0F9F1F089535
:100820000F931F93CF93DF93182F092FEB018B8129
:1008300081FD03C08FEF9FEF20C082FF10C04E816B
:100840005F812C813D81421753077CF4E881F98157
:100850009F012F5F3F4F39832883108306C0E885AF
:10086000F985812F0995892B29F72E813F812F5FEB
:100870003F4F3F832E83812F902FDF91CF911F9188
:100880000F910895FA01AA27283051F1203181F102
:10089000E8946F936E7F6E5F7F4F8F4F9F4FAF4F88
:1008A000B1E03ED0B4E03CD0670F781F891F9A1F9B
:1008B000A11D680F791F8A1F911DA11D6A0F711D4F
:1008C000811D911DA11D20D009F468943F912AE05B
:1008D000269F11243019305D3193DEF6CF01089543
:1008E000462F4770405D4193B3E00FD0C9F7F6CF74
:1008F000462F4F70405D4A3318F0495D31FD40523C
:10090000419302D0A9F7EACFB4E0A69597958795D1
:1009100077956795BA95C9F70097610571050895B0
:100920009B01AC010A2E069457954795379527955C
:10093000BA95C9F7620F731F841F951FA01D0895F4
:100940002F923F924F925F926F927F928F929F92DF
:10095000AF92BF92CF92DF92EF92FF920F931F93CD
:10096000CF93DF93CDB7DEB7CA1BDB0B0FB6F8947E
:10097000DEBF0FBECDBF09942A88398848885F84BE
:100980006E847D848C849B84AA84B984C884DF802F
:10099000EE80FD800C811B81AA81B981CE0FD11D13
:1009A0000FB6F894DEBF0FBECDBFED010895F894E9
:0209B000FFCF77
:1009B2004C6F636B656400556E6C6F636B656400AE
:1009C2004C6F636B65642020005374657068616EC0
:1009D2006965204C616D706F74616E670041756767
:1009E2007573740025732025642C202564005374CC
:1009F200617465203D2053256400537461747573DE
:060A02003D2025730000F9
:00000001FF
