:100000000C9434000C9449000C9449000C94490061
:100010000C9449000C9449000C9449000C9449003C
:100020000C9449000C9449000C9449000C9449002C
:100030000C9449000C9449000C9449000C9449001C
:100040000C9449000C9449000C9449000C9449000C
:100050000C9449000C9449000C9449000C944900FC
:100060000C9449000C94490011241FBECFEFD8E036
:10007000DEBFCDBF11E0A0E0B1E0E0EEFAE002C0EB
:1000800005900D92A432B107D9F70E94EF000C94AD
:100090006E050C940000ECE7F0E080811082AAE786
:1000A000B0E08C911C928081836080838081806429
:1000B00080838081806280838C9187608C938C9117
:1000C00080688C93089580917A00806480937A0090
:1000D00080917A0086FDFCCF8091790008959BB1D4
:1000E0009F709BB99BB1807F892B8BB9299A299AE4
:1000F00029980895CF93C82F28980E946F008C2FBD
:100100008295807F0E946F008FE39FE10197F1F756
:1001100000C00000CF910895811102C080E801C0A5
:1001200080EC860F0C947A0084B1836084B98AB124
:10013000806F8AB98FE59AEE0197F1F700C0000051
:1001400080E30E946F008FE19EE40197F1F700C009
:10015000000080E30E946F008FED91E00197F1F7BE
:1001600000C0000080E30E946F0080E20E946F00E8
:100170008FE39FE10197F1F700C0000088E20E9441
:100180007A008FE39FE10197F1F700C000008FE054
:100190000E947A008FE39FE10197F1F700C0000011
:1001A0000895CF93C82F289A0E946F008C2F8295B4
:1001B000807F0E946F008FE39FE10197F1F700C0FD
:1001C0000000CF910895CF93DF93EC0189918823AC
:1001D00019F00E94D100FACFDF91CF910895BF921C
:1001E000CF92DF92EF92FF920F931F93CF93DF9303
:1001F000CDB7DEB761970FB6F894DEBF0FBECDBFA7
:100200000E94940083E00E944B000E946300E82E4D
:10021000F12C9E2D88278E299F290E94210281E0A2
:100220000E947A0084E091E09F938F9388E191E0AF
:100230009F938F931F9281E18F938E010F5F1F4FCA
:100240001F930F930E942C02C8010E94E3002FEF1E
:1002500087EA91E6215080409040E1F700C000001D
:1002600081E00E947A000E941C0260E170E00E941E
:10027000A6016C01682F80E00E948C0088E50E9436
:10028000D10034E0F594E7943A95E1F76E2D81E0E2
:100290000E948C008EE50E94D1000FB6F894DEBF5C
:1002A0000FBECDBF0E946300082F10E094E01595AB
:1002B00007959A95E1F70E151F05A1F06E2D81E0C7
:1002C0000E948C0080E20E94D100602F81E00E9499
:1002D0008C008EE50E94D1008FE39CE90197F1F735
:1002E00000C00000C016D10611F07801DBCF0E94DB
:1002F0006300B82E88ECE82EF12C0E9463008B116D
:10030000F4CF8FE39CE90197F1F700C0000091E082
:10031000E91AF108E114F10481F781E00E947A0002
:100320008BE191E00E94E30080E090E061960FB6DF
:10033000F894DEBF0FBECDBFDF91CF911F910F911B
:10034000FF90EF90DF90CF90BF90089597FB072E1E
:1003500016F4009407D077FD09D00E94BA0107FC7B
:1003600005D03EF4909581959F4F089570956195C5
:100370007F4F0895AA1BBB1B51E107C0AA1FBB1FDB
:10038000A617B70710F0A61BB70B881F991F5A9521
:10039000A9F780959095BC01CD0108958F929F9209
:1003A000AF92BF92CF92DF92EF92FF92CF93DF9303
:1003B000EC01688179818A819B81611571058105D4
:1003C000910521F464E279ED8BE597E02DE133EFBF
:1003D00041E050E00E94D40449015A019B01AC0164
:1003E000A7EAB1E40E94F3046B017C01ACEEB4EF28
:1003F000A50194010E940105C60ED71EE81EF91E34
:10040000F7FE06C081E0C81AD108E10880E8F80AC2
:10041000C882D982EA82FB82C6019F77DF91CF91A1
:10042000FF90EF90DF90CF90BF90AF909F908F9014
:1004300008950E94CE01089580E091E00E94CE01CF
:100440000895A0E0B0E08093000190930101A09393
:100450000201B09303010895AEE0B0E0E2E3F2E000
:100460000C9414050D891E898F89988D26E02C83A4
:100470001A83098397FF02C080E090E801979E836A
:100480008D83AE01455E5F4F698D7A8DCE010196F9
:100490000E945C024D815E8157FD0AC02F81388524
:1004A000421753070CF49A01F801E20FF31F108270
:1004B0002E96E4E00C943005ACE0B0E0E2E6F2E029
:1004C0000C9406057C016B018A01FC0117821682DF
:1004D000838181FFBDC1CE0101964C01F70193815B
:1004E000F60193FD859193FF81916F01882309F4B3
:1004F000ABC1853239F493FD859193FF81916F01F2
:10050000853229F4B70190E00E944404E7CF512CD2
:10051000312C20E02032A0F48B3269F030F48032AC
:1005200059F0833269F420612CC08D3239F0803368
:1005300039F4216026C02260246023C0286021C0D5
:1005400027FD27C030ED380F3A3078F426FF06C07B
:10055000FAE05F9E300D1124532E13C08AE0389EBE
:10056000300D1124332E20620CC08E3221F426FD72
:100570006BC1206406C08C3611F4206802C0883636
:1005800041F4F60193FD859193FF81916F018111F3
:10059000C1CF982F9F7D9554933028F40C5F1F4F47
:1005A000FFE3F9830DC0833631F0833771F0833573
:1005B00009F05BC022C0F801808189830E5F1F4F64
:1005C00044244394512C540115C03801F2E06F0EBD
:1005D000711CF801A080B18026FF03C0652D70E07A
:1005E00002C06FEF7FEFC5012C870E9439042C01F8
:1005F00083012C852F77222E17C03801F2E06F0E71
:10060000711CF801A080B18026FF03C0652D70E049
:1006100002C06FEF7FEFC5012C870E942E042C01D2
:100620002C852068222E830123FC1BC0832D90E0A3
:1006300048165906B0F4B70180E290E00E944404E5
:100640003A94F4CFF50127FC859127FE81915F0153
:10065000B70190E00E94440431103A94F1E04F1A3F
:1006600051084114510471F7E5C0843611F0893600
:1006700039F5F80127FF07C060817181828193817C
:100680000C5F1F4F08C060817181882777FD8095BE
:10069000982F0E5F1F4F2F76B22E97FF09C09095AF
:1006A0008095709561957F4F8F4F9F4F2068B22E38
:1006B0002AE030E0A4010E947604A82EA81844C0C5
:1006C000853729F42F7EB22E2AE030E025C0F22FA4
:1006D000F97FBF2E8F36C1F018F4883579F0B4C099
:1006E000803719F0883721F0AFC02F2F2061B22E4C
:1006F000B4FE0DC08B2D8460B82E09C024FF0AC043
:100700009F2F9660B92E06C028E030E005C020E19A
:1007100030E002C020E132E0F801B7FE07C060819E
:100720007181828193810C5F1F4F06C0608171814E
:1007300080E090E00E5F1F4FA4010E947604A82E77
:10074000A818FB2DFF77BF2EB6FE0BC02B2D2E7FDA
:10075000A51450F4B4FE0AC0B2FC08C02B2D2E7EA6
:1007600005C07A2C2B2D03C07A2C01C0752C24FFD8
:100770000DC0FE01EA0DF11D8081803311F4297E48
:1007800009C022FF06C07394739404C0822F867838
:1007900009F0739423FD13C020FF06C05A2C731474
:1007A00018F4530C5718732C731468F4B70180E2D3
:1007B00090E02C870E94440473942C85F5CF731429
:1007C00010F4371801C0312C24FF12C0B70180E3A8
:1007D00090E02C870E9444042C8522FF17C021FF43
:1007E00003C088E590E002C088E790E0B7010CC044
:1007F000822F867859F021FD02C080E201C08BE291
:1008000027FD8DE2B70190E00E944404A51438F45E
:10081000B70180E390E00E9444045A94F7CFAA9471
:10082000F401EA0DF11D8081B70190E00E944404BB
:10083000A110F5CF332009F451CEB70180E290E04A
:100840000E9444043A94F6CFF7018681978102C052
:100850008FEF9FEF2C96E2E10C942205FC010590AE
:10086000615070400110D8F7809590958E0F9F1FB2
:100870000895FC016150704001900110D8F78095F7
:1008800090958E0F9F1F08950F931F93CF93DF9323
:10089000182F092FEB018B8181FD03C08FEF9FEF94
:1008A00020C082FF10C04E815F812C813D814217A4
:1008B00053077CF4E881F9819F012F5F3F4F398313
:1008C0002883108306C0E885F985812F0995892B37
:1008D00029F72E813F812F5F3F4F3F832E83812F4A
:1008E000902FDF91CF911F910F910895FA01AA27C0
:1008F000283051F1203181F1E8946F936E7F6E5F63
:100900007F4F8F4F9F4FAF4FB1E03ED0B4E03CD010
:10091000670F781F891F9A1FA11D680F791F8A1FF3
:10092000911DA11D6A0F711D811D911DA11D20D05A
:1009300009F468943F912AE0269F11243019305D14
:100940003193DEF6CF010895462F4770405D419305
:10095000B3E00FD0C9F7F6CF462F4F70405D4A3352
:1009600018F0495D31FD4052419302D0A9F7EACF1A
:10097000B4E0A6959795879577956795BA95C9F749
:1009800000976105710508959B01AC010A2E06943C
:100990005795479537952795BA95C9F7620F731FF5
:1009A000841F951FA01D0895052E97FB1EF400942B
:1009B0000E94EB0457FD07D00E943D0507FC03D0C1
:1009C0004EF40C94EB0450954095309521953F4F93
:1009D0004F4F5F4F089590958095709561957F4F2B
:1009E0008F4F9F4F08950E945F05A59F900DB49F64
:1009F000900DA49F800D911D11240895B7FF0C94B4
:100A0000F3040E94F304821B930B08952F923F92EC
:100A10004F925F926F927F928F929F92AF92BF920E
:100A2000CF92DF92EF92FF920F931F93CF93DF93BA
:100A3000CDB7DEB7CA1BDB0B0FB6F894DEBF0FBE17
:100A4000CDBF09942A88398848885F846E847D8464
:100A50008C849B84AA84B984C884DF80EE80FD8066
:100A60000C811B81AA81B981CE0FD11D0FB6F894DC
:100A7000DEBF0FBECDBFED010895A1E21A2EAA1B65
:100A8000BB1BFD010DC0AA1FBB1FEE1FFF1FA2173E
:100A9000B307E407F50720F0A21BB30BE40BF50B3B
:100AA000661F771F881F991F1A9469F760957095C4
:100AB000809590959B01AC01BD01CF010895A29F47
:100AC000B001B39FC001A39F700D811D1124911D22
:100AD000B29F700D811D1124911D0895F894FFCFD0
:100AE000010000005374657068616E6965204C6197
:100AF0006D706F74616E6700257300596F75207794
:040B0000696E2100F9
:00000001FF
