:100000000C943A000C9457000C9457000C94570031
:100010000C94CF000C94BB000C9457000C94570028
:100020000C9457000C9457000C9457000C94A400A7
:100030000C9457000C9457000C9459000C945700E2
:100040000C9457000C9457000C94C6010C94570064
:100050000C9457000C9457000C9457000C945700C4
:100060000C9457000C9457006364696E6F7073753D
:1000700078585B0011241FBECFEFD8E0DEBFCDBFA4
:1000800011E0A0E0B1E0E6E2F6E102C005900D92D9
:10009000A035B107D9F721E0A0E5B1E001C01D927C
:1000A000A936B207E1F70E94A4020C94110B0C943C
:1000B00000001F920F920FB60F9211242F935F939F
:1000C0006F937F938F939F93AF93BF938FE99FE03D
:1000D0000197F1F700C0000080915001909151010B
:1000E000883B9140ECF4809150019091510180FD4A
:1000F00002C02C9A0BC0809150019091510162E096
:1001000070E00E94C204019791F42C9880915001F4
:10011000909151010196909351018093500107C035
:1001200085B58E7F85BD1092510110925001BF910F
:10013000AF919F918F917F916F915F912F910F90D0
:100140000FBE0F901F9018951F920F920FB60F922F
:1001500011248F939F9380915201909153010196A6
:1001600090935301809352019F918F910F900FBEF6
:100170000F901F9018951F920F920FB60F92112497
:100180008F939F9381E090E0909367018093660145
:100190009F918F910F900FBE0F901F9018951F92F7
:1001A0000F920FB60F9211248F939F9386B1809375
:1001B0006801809168018470809365018091680175
:1001C000887080935B0180915601811125C08091D8
:1001D0005B018823B1F080916501811112C083E039
:1001E00080935601809163019091640102974CF0D5
:1001F00080916301909164010197909364018093D1
:10020000630180915B01811193C080916501882316
:1002100009F48EC081E051C080915601813029F5EA
:1002200080915B01811115C080916501811111C020
:1002300010925601809163019091640102974CF0F5
:100240008091630190916401019790936401809380
:10025000630180915B01882309F46AC08091650184
:10026000882309F465C082E028C08091560182305D
:1002700039F580915B01811116C080916501882359
:1002800091F081E080935601809163019091640127
:1002900002974CF0809163019091640101979093D3
:1002A00064018093630180915B01882309F440C05D
:1002B0008091650181113CC083E08093560128C084
:1002C000809156018330A1F580915B018823B1F0C4
:1002D00080916501882391F082E08093560180919E
:1002E00063019091640102974CF0809163019091B9
:1002F00064010197909364018093630180915B0195
:10030000811116C080916501811112C010925601B1
:100310008091630190916401833691054CF4809142
:10032000630190916401019690936401809363014D
:100330009F918F910F900FBE0F901F90189586E0A0
:100340008093C200E1ECF0E0808188618083239A91
:100350002B9808959091C00095FFFCCF8093C60024
:100360000895CF93DF93FC012081203461F4EC01E8
:1003700021968991843219F00E94AA01FACFDF9167
:10038000CF910C94AA01DF91CF9108951F920F9203
:100390000FB60F9211242F938F939F93EF93FF9398
:1003A0002091C6008091570190915801243251F05C
:1003B000FC01E25AFE4F20830196909358018093EE
:1003C000570113C08430910534F4FC01E25AFE4F0A
:1003D00010820196F7CF109258011092570181E0D8
:1003E00090E090935A0180935901FF91EF919F9172
:1003F0008F912F910F900FBE0F901F9018959BB16A
:100400009F709BB99BB1807F892B8BB9299A299AC0
:1004100029980895CF93C82F28980E94FF018C2F08
:100420008295807F0E94FF018FE39FE10197F1F7A2
:1004300000C00000CF910895811102C080E801C082
:1004400080EC860F0C940A0284B1836084B98AB16F
:10045000806F8AB98FE59AEE0197F1F700C000002E
:1004600080E30E94FF018FE19EE40197F1F700C055
:10047000000080E30E94FF018FED91E00197F1F70A
:1004800000C0000080E30E94FF0180E20E94FF01A3
:100490008FE39FE10197F1F700C0000088E20E941E
:1004A0000A028FE39FE10197F1F700C000008FE09F
:1004B0000E940A028FE39FE10197F1F700C000005C
:1004C0000895CF93C82F289A0E94FF018C2F829500
:1004D000807F0E94FF018FE39FE10197F1F700C049
:1004E0000000CF910895CF93DF93EC018991882389
:1004F00019F00E946102FACFDF91CF910895ECE7E5
:10050000F0E090811082AAE7B0E09C911C9290816B
:100510008F70892B8083808180648083808180625A
:1005200080838C9187608C938C9180688C930895E4
:1005300080917A00806480937A0080917A0086FDB1
:10054000FCCF809179000895CF93DF93CDB7DEB7CC
:10055000C654D1090FB6F894DEBF0FBECDBF84E6F6
:1005600090E00E94AD0990E0909364018093630154
:100570008091630190916401181619063CF48091F2
:100580006301909164018436910534F081E090E03C
:10059000909364018093630187E690E09093C50097
:1005A0008093C4000E949F018091C1008068809365
:1005B000C1000E94240281E00E940A0280E091E0D2
:1005C0009F938F9381E491E09F938F931F9281E19A
:1005D0008F938E010E5E1F4F1F930F930E94DD04B9
:1005E000C8010E9473022FEF37EA81E621503040A4
:1005F0008040E1F700C0000081E00E940A0260E054
:1006000081E00E941C0280916301909164019F939C
:100610008F9384E191E09F938F9389E191E09F9381
:100620008F931F9281E18F93015111091F930F93B3
:100630000E94DD04C8010E94730286B180936801A4
:100640008091680180728093650180916801827059
:1006500080935B0180915B010FB6F894DEBF0FBE03
:10066000CDBF811104C080916501882369F080911C
:100670005B01811104C080916501811105C08091E9
:100680005B01811180916501809181008860809378
:10069000810080916F00826080936F0080E89EE30C
:1006A0009093890080938800789484B5826084BD9B
:1006B00080916E00826080936E0085E087BD5298C5
:1006C00053985A9A5B9A399A88B18C6088B9249A5F
:1006D0008091680084608093680080916D008460E0
:1006E00080936D0080916D00886080936D00809193
:1006F000680082608093680080916C0084608093C1
:100700006C0080916C00886080936C00612C712C6F
:100710009AE0A92EB12C7E01B4E3EB0EF11C24E487
:10072000222E21E0322E36E4432E31E0532E6E018C
:10073000E5E4CE0ED11C4E01F3E28F0E911C209108
:100740005401309155018091630190916401281703
:100750003907E9F160E081E00E941C026EE171E07E
:10076000C8010E94D604C8010E94730260E081E0C3
:100770000E941C0280916301909164019F938F936A
:10078000A4E1B1E0BF93AF93A9E1B1E0BF93AF9310
:100790001F9281E18F931F930F930E94DD04C80184
:1007A0000E947302809163019091640190935501BE
:1007B00080935401609163017091640184E690E03C
:1007C0000E94B5090FB6F894DEBF0FBECDBF809171
:1007D000660190916701019709F077C04A990FC0AF
:1007E00031E06316710409F46CC0419A8091810074
:1007F00081608093810066246394712C62C04B9960
:1008000060C06114710409F45CC04198809181005A
:100810008E7F8093810060915201709153018BEF24
:1008200090E80E94AE04762E672E62E080E00E947F
:100830001C022091520130915301ACE2B1E0BF9310
:10084000AF93872D962DB5010E94C2049F938F937D
:10085000AFE2B1E0BF93AF937F936F93A1E3B1E0B9
:10086000BF93AF933F932F93A7E3B1E0BF93AF93B1
:100870001F9281E18F93FF92EF920E94DD04C701E6
:100880000E9473023F922F926F927F925F924F92DB
:100890008DE391E09F938F931F9286E08F93FF9259
:1008A000EF920E94DD04C7010E94B1011092530132
:1008B000109252010FB6F894DEBF0FBECDBF612C6F
:1008C000712C1092670110926601809159019091EC
:1008D0005A01019709F033CF6AE081E00E941C02BF
:1008E000DF92CF928BE191E09F938F938EE591E021
:1008F0009F938F930E940D05D6018D919C91B50118
:100900000E94C2049F938F937F936F9388E491E03A
:100910009F938F931F9281E18F939F928F920E945A
:10092000DD04C4010E9473022091630130916401CF
:10093000F60180819181B5010E94C2040FB6F8943E
:10094000DEBF0FBECDBF621773071CF085B5816097
:1009500085BD10925A0110925901F1CEAA1BBB1B02
:1009600051E107C0AA1FBB1FA617B70710F0A61BAF
:10097000B70B881F991F5A95A9F780959095BC01D0
:10098000CD01089597FB072E16F4009407D077FD4C
:1009900009D00E94AE0407FC05D03EF490958195E5
:1009A0009F4F0895709561957F4F0895FB01DC017D
:1009B00001900D920020E1F70895AEE0B0E0E3EE83
:1009C000F4E00C94E80A0D891E898F89988D26E041
:1009D0002C831A83098397FF02C080E090E8019777
:1009E0009E838D83AE01455E5F4F698D7A8DCE010A
:1009F00001960E9426054D815E8157FD0AC02F8118
:100A00003885421753070CF49A01F801E20FF31FDF
:100A100010822E96E4E00C94040BAEE0B0E0E3E12B
:100A2000F5E00C94EA0A85E08C838B899C899A8393
:100A30008983AE01495E5F4F6D897E89CE01019643
:100A40000E9476082E96E2E00C94060BACE0B0E033
:100A5000ECE2F5E00C94DA0A7C016B018A01FC01FE
:100A600017821682838181FFBDC1CE0101964C01A0
:100A7000F7019381F60193FD859193FF81916F01B9
:100A8000882309F4ABC1853239F493FD859193FF36
:100A900081916F01853229F4B70190E00E942E0AFE
:100AA000E7CF512C312C20E02032A0F48B3269F0BA
:100AB00030F4803259F0833269F420612CC08D32D9
:100AC00039F0803339F4216026C02260246023C0CD
:100AD000286021C027FD27C030ED380F3A3078F468
:100AE00026FF06C0FAE05F9E300D1124532E13C07E
:100AF0008AE0389E300D1124332E20620CC08E32D5
:100B000021F426FD6BC1206406C08C3611F42068E8
:100B100002C0883641F4F60193FD859193FF8191DF
:100B20006F018111C1CF982F9F7D9554933028F488
:100B30000C5F1F4FFFE3F9830DC0833631F083371D
:100B400071F0833509F05BC022C0F8018081898390
:100B50000E5F1F4F44244394512C540115C038019B
:100B6000F2E06F0E711CF801A080B18026FF03C077
:100B7000652D70E002C06FEF7FEFC5012C870E94EA
:100B8000E5092C0183012C852F77222E17C038010F
:100B9000F2E06F0E711CF801A080B18026FF03C047
:100BA000652D70E002C06FEF7FEFC5012C870E94BA
:100BB000DA092C012C852068222E830123FC1BC01E
:100BC000832D90E048165906B0F4B70180E290E01A
:100BD0000E942E0A3A94F4CFF50127FC859127FE56
:100BE00081915F01B70190E00E942E0A31103A9482
:100BF000F1E04F1A51084114510471F7E5C08436F1
:100C000011F0893639F5F80127FF07C0608171813D
:100C1000828193810C5F1F4F08C06081718188279A
:100C200077FD8095982F0E5F1F4F2F76B22E97FF7E
:100C300009C090958095709561957F4F8F4F9F4F1C
:100C40002068B22E2AE030E0A4010E94790AA82E82
:100C5000A81844C0853729F42F7EB22E2AE030E050
:100C600025C0F22FF97FBF2E8F36C1F018F48835DA
:100C700079F0B4C0803719F0883721F0AFC02F2F3A
:100C80002061B22EB4FE0DC08B2D8460B82E09C039
:100C900024FF0AC09F2F9660B92E06C028E030E0DE
:100CA00005C020E130E002C020E132E0F801B7FEEB
:100CB00007C060817181828193810C5F1F4F06C0E4
:100CC0006081718180E090E00E5F1F4FA4010E945F
:100CD000790AA82EA818FB2DFF77BF2EB6FE0BC0F1
:100CE0002B2D2E7FA51450F4B4FE0AC0B2FC08C010
:100CF0002B2D2E7E05C07A2C2B2D03C07A2C01C003
:100D0000752C24FF0DC0FE01EA0DF11D808180339A
:100D100011F4297E09C022FF06C07394739404C0A5
:100D2000822F867809F0739423FD13C020FF06C03C
:100D30005A2C731418F4530C5718732C731468F44A
:100D4000B70180E290E02C870E942E0A73942C85D4
:100D5000F5CF731410F4371801C0312C24FF12C0E2
:100D6000B70180E390E02C870E942E0A2C8522FF99
:100D700017C021FF03C088E590E002C088E790E03B
:100D8000B7010CC0822F867859F021FD02C080E2A5
:100D900001C08BE227FD8DE2B70190E00E942E0A90
:100DA000A51438F4B70180E390E00E942E0A5A940B
:100DB000F7CFAA94F401EA0DF11D8081B70190E00C
:100DC0000E942E0AA110F5CF332009F451CEB701AD
:100DD00080E290E00E942E0A3A94F6CFF7018681D5
:100DE000978102C08FEF9FEF2C96E2E10C94F60AF8
:100DF00020FD09C0FC0123FD05C022FF02C0738352
:100E0000628351834083089544FD10C046FD10C0A5
:100E1000DB01FC01AA0FBB1FEE1FFF1F1094D1F7CF
:100E20006A0F7B1F8E1F9F1F31E003C033E001C09C
:100E300034E0660F771F881F991F3150D1F7620F7A
:100E4000711D811D911D08950F931F93CF93DF9303
:100E50008C01C8010E94F009EC0197FD08C00E94B6
:100E6000C709892BB1F7B801CE010E94600ACE01F3
:100E7000DF91CF911F910F9108958F929F92AF9222
:100E8000CF92DF92EF92FF920F931F93CF93DF9356
:100E9000EC01A62E4A01022F0E94F009AC01552751
:100EA0004B32510521F04D32510551F40068AA949E
:100EB00011F480E067C0CE010E94F00997FDF9CFE0
:100EC000102F1D7F302F307301F58033F1F4FF2494
:100ED000FA94FA0C09F442C0CE010E94F00997FD81
:100EE0003DC0382F3F7D383551F41264AA94AA943E
:100EF000A9F1CE010E94F00997FF07C02FC006FF9D
:100F000002C0126001C01261AF2CC12CD12C76013D
:100F100020ED280F283080F014FF04C0BE010E948D
:100F2000600A19C02A3040F016FFF8CF2F7D3FEE3F
:100F3000320F363098F72750412FC701B6010E9473
:100F400004076B017C011260AA9459F0CE010E9443
:100F5000F00997FFDDCF11FD04C0ABCFC12CD12C20
:100F6000760117FF08C0F094E094D094C094C11C9F
:100F7000D11CE11CF11C212FB701A601C4010E9464
:100F8000F80681E0DF91CF911F910F91FF90EF90D4
:100F9000DF90CF90AF909F908F900895A1E2B0E046
:100FA000E4EDF7E00C94DF0A5C017A018E010F5F3B
:100FB0001F4F680180E2D8011D928A95E9F7F5017B
:100FC000738040E050E0812CB0E0912C81E090E013
:100FD000F90173FCA59173FEA1918F017A2F9F01F6
:100FE000A11103C080E090E07DC0AE3519F4411539
:100FF000510559F1E92DF0E0E417F5073CF4AD3562
:1010000069F1AD3219F4BB2319F103C0B11101C06C
:101010008A2EE72FE695E695E69586010E0F111DBF
:10102000F801A72FA7708C0102C0000F111FAA950D
:10103000E2F7D801B081BA2BB083781559F0781552
:1010400010F47F5FE6CF7150E4CF9924939403C0EE
:10105000B1E001C0B0E04F5F5F4FBACFBB2319F0E2
:101060008E8180628E83911003C09924939415C061
:10107000F601CE018196208120952193E817F9078A
:10108000D1F7F3CFE114F10429F0D7018C93F701E4
:1010900031967F01615001F1912CC50169A30E9435
:1010A000F00969A197FD16C0282F2695269526954B
:1010B000F601E20FF11D208130E0AC0147705527A9
:1010C00002C0359527954A95E2F720FDDBCFB501A3
:1010D0000E94600A911086CFE114F10411F0D7014B
:1010E0001C92C801A196EDE00C94FB0A4F925F920E
:1010F0007F928F929F92AF92BF92CF92DF92EF92A8
:10110000FF920F931F93CF93DF931F92CDB7DEB75C
:101110008C012B017A01FC0117821682A12CF801A7
:10112000D380F201D3FC8591D3FE8191382F2F011A
:10113000882309F4FCC090E039830E94C7093981F3
:10114000892B21F0C8010E942407E9CF353241F4F0
:10115000F201D3FC3591D3FE31912F01353269F480
:10116000C80139830E94F009398197FDDEC0381724
:10117000B1F2B8010E94600ADAC03A3241F4D3FCFD
:101180003591D3FE31912F01BB24B39401C0B12C12
:10119000712C20ED230F2A3090F4FB2DF260BF2E2E
:1011A000672D70E080E090E040E20E940407762E18
:1011B000F201D3FC3591D3FE31912F01EACFB1FE7C
:1011C00003C0711003C0B3C077247A94383619F085
:1011D0003C3661F014C0F201D3FC3591D3FE31915D
:1011E0002F01383661F4FB2DF860BF2E8B2D846003
:1011F000B82EF201D3FC3591D3FE31912F01332368
:1012000009F495C0632F70E088E690E039830E946E
:10121000CF093981892B09F48AC0B0FC07C0F701D6
:10122000C080D180C70102967C0102C0C12CD12CA4
:101230003E3651F4F8014681578160E070E02B2D75
:10124000C6010E94F8066BCF3336A1F4B1FC02C090
:1012500077247394C8010E94F00997FD66C0C114F9
:10126000D10429F0F6018083C60101966C017A94BD
:1012700089F757C03B3559F49201A601672DC80183
:101280000E94CE072C01009709F04BC045C0C80151
:1012900039830E942407398197FD47C03F3669F1A1
:1012A00028F4343631F1393679F12BC0333769F00F
:1012B0003537F9F026C0C114D10429F0F601808237
:1012C000C60101966C017A9471F0C8010E94F00980
:1012D0004C0197FD08C00E94C709892B61F3B80132
:1012E000C4010E94600AC114D104D9F0F601108231
:1012F00018C0FB2DF062BF2E07C08B2D8061B82E69
:1013000003C09B2D9064B92E2B2DA601672DC8011B
:101310000E943D07811105C0F8018381807329F483
:1013200006C0B0FCFCCEA394FACEAA2019F08A2DF8
:1013300090E002C08FEF9FEF0F90DF91CF911F9150
:101340000F91FF90EF90DF90CF90BF90AF909F9064
:101350008F907F905F904F900895F999FECF92BD46
:1013600081BDF89A992780B50895262FF999FECF67
:1013700092BD81BDF89A019700B4021639F01FBAE8
:1013800020BD0FB6F894FA9AF99A0FBE08959111FC
:101390000EC1803219F089508550D0F70895FC01B4
:1013A0000590061621F00020D9F7C0010895319765
:1013B000CF010895FC010590615070400110D8F7ED
:1013C000809590958E0F9F1F0895FC01615070408D
:1013D00001900110D8F7809590958E0F9F1F08956A
:1013E000CF93DF93EC012B8120FF33C026FF0AC08F
:1013F0002F7B2B838E819F8101969F838E838A8191
:1014000090E029C022FF0FC0E881F98180819927EF
:1014100087FD9095009719F420622B831AC03196AE
:10142000F983E8830EC0EA85FB85099597FF09C01B
:101430002B81019611F480E101C080E2822B8B8325
:1014400008C02E813F812F5F3F4F3F832E83992716
:1014500002C08FEF9FEFDF91CF9108950F931F93FD
:10146000CF93DF93182F092FEB018B8181FD03C0F0
:101470008FEF9FEF20C082FF10C04E815F812C81D3
:101480003D81421753077CF4E881F9819F012F5F6A
:101490003F4F39832883108306C0E885F985812F63
:1014A0000995892B29F72E813F812F5F3F4F3F837D
:1014B0002E83812F902FDF91CF911F910F9108954F
:1014C000FB01238120FF12C026FD10C08F3F3FEF9C
:1014D000930761F082832F7D2064238326813781E7
:1014E0002150310937832683992708958FEF9FEF85
:1014F0000895FA01AA27283051F1203181F1E894AA
:101500006F936E7F6E5F7F4F8F4F9F4FAF4FB1E0F6
:101510003ED0B4E03CD0670F781F891F9A1FA11DF1
:10152000680F791F8A1F911DA11D6A0F711D811DF2
:10153000911DA11D20D009F468943F912AE0269FB7
:1015400011243019305D3193DEF6CF010895462F16
:101550004770405D4193B3E00FD0C9F7F6CF462FF7
:101560004F70405D4A3318F0495D31FD4052419360
:1015700002D0A9F7EACFB4E0A6959795879577951D
:101580006795BA95C9F700976105710508959B01A4
:10159000AC010A2E06945795479537952795BA952D
:1015A000C9F7620F731F841F951FA01D0895992707
:1015B000882708952F923F924F925F926F927F9269
:1015C0008F929F92AF92BF92CF92DF92EF92FF9253
:1015D0000F931F93CF93DF93CDB7DEB7CA1BDB0BFF
:1015E0000FB6F894DEBF0FBECDBF09942A883988A4
:1015F00048885F846E847D848C849B84AA84B984AB
:10160000C884DF80EE80FD800C811B81AA81B981B6
:10161000CE0FD11D0FB6F894DEBF0FBECDBFED01CA
:061620000895F894FFCFCD
:101626005374657068616E6965204C616D706F7486
:10163600616E67004D61783D0025732564004D613C
:10164600783D202020202020202020202020002E31
:10165600006D73203D2000256425732564257325C0
:10166600642573002400400025642E256420200094
:00000001FF
