:100000000C9434000C9451000C9451000C94510049
:100010000C9453000C9451000C9451000C9451001A
:100020000C9451000C9451000C9451000C9451000C
:100030000C9451000C9451000C9451000C945100FC
:100040000C9451000C9451000C9451000C945100EC
:100050000C9451000C9451000C9451000C945100DC
:100060000C9451000C94510011241FBECFEFD8E026
:10007000DEBFCDBF11E0A0E0B1E0E2ECFBE002C0EA
:1000800005900D92AE32B107D9F721E0AEE2B1E0B2
:1000900001C01D92A633B207E1F70E94B7010C948C
:1000A000DF050C9400001F920F920FB60F921124DF
:1000B0008F939F9386B18093350180913501807233
:1000C0008093340180913501827080933201809158
:1000D000330181111FC080913201882381F080910A
:1000E000340181110CC083E0809333018091300191
:1000F000909131010197909331018093300180916B
:100100003201811179C080913401882309F474C0CF
:1001100081E044C0809133018130F9F48091320153
:1001200081110FC08091340181110BC010923301F5
:10013000809130019091310101979093310180932A
:10014000300180913201882309F456C08091340136
:10015000882309F451C082E021C0809133018230AC
:1001600001F580913201811110C080913401882302
:1001700061F081E0809333018091300190913101F1
:10018000019790933101809330018091320188234F
:1001900099F18091340181112FC083E08093330164
:1001A00022C080913301833039F580913201882358
:1001B00081F080913401882361F082E080933301E3
:1001C000809130019091310101979093310180939A
:1001D00030018091320181110FC080913401811171
:1001E0000BC0109233018091300190913101019642
:1001F00090933101809330019F918F910F900FBEAA
:100200000F901F90189505966AE070E00E94970283
:100210006115710539F085E38A95F1F700006150A9
:100220007109F6CF08950F931F93CF93DF93EC01DD
:100230009C0140E050E060E472E48FE090E00E94B6
:10024000AB0256954795379527958901209751F030
:100250002C9AC8010E9403012C98C8010E94030136
:100260002197F4CFDF91CF911F910F9108959BB10A
:100270009F709BB99BB1807F892B8BB9299A299A52
:1002800029980895CF93C82F28980E9437018C2F62
:100290008295807F0E9437018FE39FE10197F1F7FC
:1002A00000C00000CF910895811102C080E801C014
:1002B00080EC860F0C94420184B1836084B98AB1CA
:1002C000806F8AB98FE59AEE0197F1F700C00000C0
:1002D00080E30E9437018FE19EE40197F1F700C0AF
:1002E000000080E30E9437018FED91E00197F1F764
:1002F00000C0000080E30E94370180E20E943701C5
:100300008FE39FE10197F1F700C0000088E20E94AF
:1003100042018FE39FE10197F1F700C000008FE0F9
:100320000E9442018FE39FE10197F1F700C00000B6
:100330000895CF93C82F289A0E9437018C2F829559
:10034000807F0E9437018FE39FE10197F1F700C0A2
:100350000000CF910895CF93DF93EC01899188231A
:1003600019F00E949901FACFDF91CF910895CF93B0
:10037000DF93CDB7DEB7A2970FB6F894DEBF0FBEFE
:10038000CDBF3D98399888B1826288B9249A80910E
:10039000680082608093680080916C008260809326
:1003A0006C0080916C00806280936C0078940E9455
:1003B0005C0181E00E94420180E191E09F938F9374
:1003C00087E291E09F938F931F9281E18F938E013B
:1003D0000E5E1F4F1F930F930E940003C8010E94DF
:1003E000AB012FEF33ED80E3215030408040E1F747
:1003F00000C0000081E00E94420186B18093350177
:100400008091350180728093340180913501827032
:1004100080933201809132010FB6F894DEBF0FBE97
:10042000CDBF811107C080913401811103C01092AA
:10043000330117C080913201811106C080913401CF
:10044000882311F081E00BC080913201882331F0C4
:1004500080913401811102C082E001C083E0809369
:1004600033015AE2E52E51E0F52E61E1D62E8E01E0
:100470000F5F1F4F20912E0130912F01809130018D
:100480009091310128173907A9F381E00E944201B8
:1004900060E080E00E945401809130019091310130
:1004A0009F938F93FF92EF921F92DF921F930F9370
:1004B0000E940003C8010E94AB01209130013091DD
:1004C000310137FF03C03195219531090FB6F894FA
:1004D000DEBF0FBECDBFC90187709927892BF1F40C
:1004E00040912E0150912F01809130019091310166
:1004F0004817590799F043E0359527954A95E1F754
:100500002830310514F027703327F901EE0FFF1F53
:10051000E050FF4F808191810E9413018091300152
:100520009091310190932F0180932E01A3CF97FBDF
:10053000072E16F4009407D077FD09D00E94CA0256
:1005400007FC05D03EF4909581959F4F08957095D6
:1005500061957F4F0895052E97FB1EF400940E942D
:10056000C20257FD07D00E94DE0207FC03D04EF402
:100570000C94C20250954095309521953F4F4F4FB6
:100580005F4F089590958095709561957F4F8F4F3F
:100590009F4F0895AA1BBB1B51E107C0AA1FBB1F99
:1005A000A617B70710F0A61BB70B881F991F5A95FF
:1005B000A9F780959095BC01CD010895A1E21A2E6E
:1005C000AA1BBB1BFD010DC0AA1FBB1FEE1FFF1FF7
:1005D000A217B307E407F50720F0A21BB30BE40B47
:1005E000F50B661F771F881F991F1A9469F760958E
:1005F0007095809590959B01AC01BD01CF01089548
:10060000AEE0B0E0E6E0F3E00C94B6050D891E899B
:100610008F89988D26E02C831A83098397FF02C067
:1006200080E090E801979E838D83AE01455E5F4F29
:10063000698D7A8DCE0101960E9430034D815E81D5
:1006400057FD0AC02F813885421753070CF49A01D1
:10065000F801E20FF31F10822E96E4E00C94D2050D
:10066000ACE0B0E0E6E3F3E00C94A8057C016B019C
:100670008A01FC0117821682838181FFBDC1CE01F0
:1006800001964C01F7019381F60193FD859193FF4B
:1006900081916F01882309F4ABC1853239F493FD50
:1006A000859193FF81916F01853229F4B70190E024
:1006B0000E941805E7CF512C312C20E02032A0F405
:1006C0008B3269F030F4803259F0833269F4206162
:1006D0002CC08D3239F0803339F4216026C022607D
:1006E000246023C0286021C027FD27C030ED380FCB
:1006F0003A3078F426FF06C0FAE05F9E300D1124F0
:10070000532E13C08AE0389E300D1124332E206200
:100710000CC08E3221F426FD6BC1206406C08C36DD
:1007200011F4206802C0883641F4F60193FD8591EA
:1007300093FF81916F018111C1CF982F9F7D9554B7
:10074000933028F40C5F1F4FFFE3F9830DC083360D
:1007500031F0833771F0833509F05BC022C0F801B6
:10076000808189830E5F1F4F44244394512C540190
:1007700015C03801F2E06F0E711CF801A080B18045
:1007800026FF03C0652D70E002C06FEF7FEFC5014B
:100790002C870E940D052C0183012C852F77222E9A
:1007A00017C03801F2E06F0E711CF801A080B18013
:1007B00026FF03C0652D70E002C06FEF7FEFC5011B
:1007C0002C870E9402052C012C852068222E830193
:1007D00023FC1BC0832D90E048165906B0F4B701E6
:1007E00080E290E00E9418053A94F4CFF50127FCCE
:1007F000859127FE81915F01B70190E00E94180565
:1008000031103A94F1E04F1A51084114510471F734
:10081000E5C0843611F0893639F5F80127FF07C0A5
:1008200060817181828193810C5F1F4F08C060815C
:100830007181882777FD8095982F0E5F1F4F2F7647
:10084000B22E97FF09C090958095709561957F4F66
:100850008F4F9F4F2068B22E2AE030E0A4010E9403
:100860004A05A82EA81844C0853729F42F7EB22E39
:100870002AE030E025C0F22FF97FBF2E8F36C1F07D
:1008800018F4883579F0B4C0803719F0883721F032
:10089000AFC02F2F2061B22EB4FE0DC08B2D84600F
:1008A000B82E09C024FF0AC09F2F9660B92E06C03B
:1008B00028E030E005C020E130E002C020E132E075
:1008C000F801B7FE07C060817181828193810C5F5E
:1008D0001F4F06C06081718180E090E00E5F1F4F66
:1008E000A4010E944A05A82EA818FB2DFF77BF2E51
:1008F000B6FE0BC02B2D2E7FA51450F4B4FE0AC0FB
:10090000B2FC08C02B2D2E7E05C07A2C2B2D03C0E7
:100910007A2C01C0752C24FF0DC0FE01EA0DF11DDB
:100920008081803311F4297E09C022FF06C07394B0
:10093000739404C0822F867809F0739423FD13C04A
:1009400020FF06C05A2C731418F4530C5718732C3C
:10095000731468F4B70180E290E02C870E941805B8
:1009600073942C85F5CF731410F4371801C0312C13
:1009700024FF12C0B70180E390E02C870E94180585
:100980002C8522FF17C021FF03C088E590E002C03C
:1009900088E790E0B7010CC0822F867859F021FDDE
:1009A00002C080E201C08BE227FD8DE2B70190E03A
:1009B0000E941805A51438F4B70180E390E00E9466
:1009C00018055A94F7CFAA94F401EA0DF11D80811D
:1009D000B70190E00E941805A110F5CF332009F46B
:1009E00051CEB70180E290E00E9418053A94F6CF0C
:1009F000F7018681978102C08FEF9FEF2C96E2E18D
:100A00000C94C405FC010590615070400110D8F7AA
:100A1000809590958E0F9F1F0895FC016150704046
:100A200001900110D8F7809590958E0F9F1F089523
:100A30000F931F93CF93DF93182F092FEB018B8117
:100A400081FD03C08FEF9FEF20C082FF10C04E8159
:100A50005F812C813D81421753077CF4E881F98145
:100A60009F012F5F3F4F39832883108306C0E8859D
:100A7000F985812F0995892B29F72E813F812F5FD9
:100A80003F4F3F832E83812F902FDF91CF911F9176
:100A90000F910895FA01AA27283051F1203181F1F0
:100AA000E8946F936E7F6E5F7F4F8F4F9F4FAF4F76
:100AB000B1E03ED0B4E03CD0670F781F891F9A1F89
:100AC000A11D680F791F8A1F911DA11D6A0F711D3D
:100AD000811D911DA11D20D009F468943F912AE049
:100AE000269F11243019305D3193DEF6CF01089531
:100AF000462F4770405D4193B3E00FD0C9F7F6CF62
:100B0000462F4F70405D4A3318F0495D31FD405229
:100B1000419302D0A9F7EACFB4E0A69597958795BF
:100B200077956795BA95C9F700976105710508959E
:100B30009B01AC010A2E069457954795379527954A
:100B4000BA95C9F7620F731F841F951FA01D0895E2
:100B50002F923F924F925F926F927F928F929F92CD
:100B6000AF92BF92CF92DF92EF92FF920F931F93BB
:100B7000CF93DF93CDB7DEB7CA1BDB0B0FB6F8946C
:100B8000DEBF0FBECDBF09942A88398848885F84AC
:100B90006E847D848C849B84AA84B984C884DF801D
:100BA000EE80FD800C811B81AA81B981CE0FD11D01
:100BB0000FB6F894DEBF0FBECDBFED010895F894D7
:020BC000FFCF65
:100BC200060126014A015D018801B801EE010B020E
:100BD2005374657068616E6965203A29204C616DB5
:0E0BE200706F74616E6700257300256400005B
:00000001FF
